{
  "contractName": "Election",
  "abi": [
    {
      "inputs": [],
      "stateMutability": "nonpayable",
      "type": "constructor"
    },
    {
      "anonymous": false,
      "inputs": [
        {
          "indexed": true,
          "internalType": "uint256",
          "name": "candidateId",
          "type": "uint256"
        }
      ],
      "name": "VotedEvent",
      "type": "event"
    },
    {
      "inputs": [
        {
          "internalType": "uint256",
          "name": "",
          "type": "uint256"
        }
      ],
      "name": "candidates",
      "outputs": [
        {
          "internalType": "uint256",
          "name": "id",
          "type": "uint256"
        },
        {
          "internalType": "string",
          "name": "CfirstName",
          "type": "string"
        },
        {
          "internalType": "string",
          "name": "ClastName",
          "type": "string"
        },
        {
          "internalType": "string",
          "name": "CidNumber",
          "type": "string"
        },
        {
          "internalType": "string",
          "name": "party",
          "type": "string"
        },
        {
          "internalType": "uint256",
          "name": "voteCount",
          "type": "uint256"
        }
      ],
      "stateMutability": "view",
      "type": "function"
    },
    {
      "inputs": [],
      "name": "candidatesCount",
      "outputs": [
        {
          "internalType": "uint256",
          "name": "",
          "type": "uint256"
        }
      ],
      "stateMutability": "view",
      "type": "function"
    },
    {
      "inputs": [],
      "name": "manager",
      "outputs": [
        {
          "internalType": "address",
          "name": "",
          "type": "address"
        }
      ],
      "stateMutability": "view",
      "type": "function"
    },
    {
      "inputs": [
        {
          "internalType": "uint256",
          "name": "",
          "type": "uint256"
        }
      ],
      "name": "users",
      "outputs": [
        {
          "internalType": "string",
          "name": "firstName",
          "type": "string"
        },
        {
          "internalType": "string",
          "name": "lastName",
          "type": "string"
        },
        {
          "internalType": "string",
          "name": "idNumber",
          "type": "string"
        },
        {
          "internalType": "string",
          "name": "email",
          "type": "string"
        },
        {
          "internalType": "string",
          "name": "password",
          "type": "string"
        },
        {
          "internalType": "address",
          "name": "add",
          "type": "address"
        }
      ],
      "stateMutability": "view",
      "type": "function"
    },
    {
      "inputs": [],
      "name": "usersCount",
      "outputs": [
        {
          "internalType": "uint256",
          "name": "",
          "type": "uint256"
        }
      ],
      "stateMutability": "view",
      "type": "function"
    },
    {
      "inputs": [
        {
          "internalType": "address",
          "name": "",
          "type": "address"
        }
      ],
      "name": "voters",
      "outputs": [
        {
          "internalType": "bool",
          "name": "",
          "type": "bool"
        }
      ],
      "stateMutability": "view",
      "type": "function"
    },
    {
      "inputs": [
        {
          "internalType": "string",
          "name": "_CfirstName",
          "type": "string"
        },
        {
          "internalType": "string",
          "name": "_ClastName",
          "type": "string"
        },
        {
          "internalType": "string",
          "name": "_CidNumber",
          "type": "string"
        },
        {
          "internalType": "string",
          "name": "_party",
          "type": "string"
        }
      ],
      "name": "addCandidate",
      "outputs": [],
      "stateMutability": "nonpayable",
      "type": "function"
    },
    {
      "inputs": [
        {
          "internalType": "uint256",
          "name": "_candidateId",
          "type": "uint256"
        }
      ],
      "name": "vote",
      "outputs": [],
      "stateMutability": "nonpayable",
      "type": "function"
    },
    {
      "inputs": [
        {
          "internalType": "string",
          "name": "_firstName",
          "type": "string"
        },
        {
          "internalType": "string",
          "name": "_lastName",
          "type": "string"
        },
        {
          "internalType": "string",
          "name": "_idNumber",
          "type": "string"
        },
        {
          "internalType": "string",
          "name": "_email",
          "type": "string"
        },
        {
          "internalType": "string",
          "name": "_password",
          "type": "string"
        }
      ],
      "name": "addUser",
      "outputs": [],
      "stateMutability": "nonpayable",
      "type": "function"
    }
  ],
  "bytecode": "0x608060405234801561000f575f80fd5b50335f806101000a81548173ffffffffffffffffffffffffffffffffffffffff021916908373ffffffffffffffffffffffffffffffffffffffff1602179055506116498061005c5f395ff3fe608060405234801561000f575f80fd5b5060043610610091575f3560e01c806342b03cc91161006457806342b03cc914610139578063481c6a75146101555780636ba13a8214610173578063a3ec138d14610191578063b37a3d82146101c157610091565b80630121b93f146100955780632d35a8a2146100b15780633477ee2e146100cf578063365b98b214610104575b5f80fd5b6100af60048036038101906100aa9190610bbb565b6101dd565b005b6100b9610364565b6040516100c69190610bf5565b60405180910390f35b6100e960048036038101906100e49190610bbb565b61036a565b6040516100fb96959493929190610c98565b60405180910390f35b61011e60048036038101906101199190610bbb565b6105ba565b60405161013096959493929190610d52565b60405180910390f35b610153600480360381019061014e9190610f00565b6108af565b005b61015d610a08565b60405161016a9190610fd4565b60405180910390f35b61017b610a2b565b6040516101889190610bf5565b60405180910390f35b6101ab60048036038101906101a69190611017565b610a31565b6040516101b8919061105c565b60405180910390f35b6101db60048036038101906101d69190611075565b610a4e565b005b60015f3373ffffffffffffffffffffffffffffffffffffffff1673ffffffffffffffffffffffffffffffffffffffff1681526020019081526020015f205f9054906101000a900460ff1615610267576040517f08c379a000000000000000000000000000000000000000000000000000000000815260040161025e906111c2565b60405180910390fd5b5f8111801561027857506003548111155b6102b7576040517f08c379a00000000000000000000000000000000000000000000000000000000081526004016102ae9061122a565b60405180910390fd5b6001805f3373ffffffffffffffffffffffffffffffffffffffff1673ffffffffffffffffffffffffffffffffffffffff1681526020019081526020015f205f6101000a81548160ff02191690831515021790555060025f8281526020019081526020015f206005015f81548092919061032f90611275565b9190505550807fe447c5464cb203c1da94b4db8588d3cbf313ce4a489122f6b88e87f465b2810e60405160405180910390a250565b60035481565b6002602052805f5260405f205f91509050805f01549080600101805461038f906112e9565b80601f01602080910402602001604051908101604052809291908181526020018280546103bb906112e9565b80156104065780601f106103dd57610100808354040283529160200191610406565b820191905f5260205f20905b8154815290600101906020018083116103e957829003601f168201915b50505050509080600201805461041b906112e9565b80601f0160208091040260200160405190810160405280929190818152602001828054610447906112e9565b80156104925780601f1061046957610100808354040283529160200191610492565b820191905f5260205f20905b81548152906001019060200180831161047557829003601f168201915b5050505050908060030180546104a7906112e9565b80601f01602080910402602001604051908101604052809291908181526020018280546104d3906112e9565b801561051e5780601f106104f55761010080835404028352916020019161051e565b820191905f5260205f20905b81548152906001019060200180831161050157829003601f168201915b505050505090806004018054610533906112e9565b80601f016020809104026020016040519081016040528092919081815260200182805461055f906112e9565b80156105aa5780601f10610581576101008083540402835291602001916105aa565b820191905f5260205f20905b81548152906001019060200180831161058d57829003601f168201915b5050505050908060050154905086565b6004602052805f5260405f205f91509050805f0180546105d9906112e9565b80601f0160208091040260200160405190810160405280929190818152602001828054610605906112e9565b80156106505780601f1061062757610100808354040283529160200191610650565b820191905f5260205f20905b81548152906001019060200180831161063357829003601f168201915b505050505090806001018054610665906112e9565b80601f0160208091040260200160405190810160405280929190818152602001828054610691906112e9565b80156106dc5780601f106106b3576101008083540402835291602001916106dc565b820191905f5260205f20905b8154815290600101906020018083116106bf57829003601f168201915b5050505050908060020180546106f1906112e9565b80601f016020809104026020016040519081016040528092919081815260200182805461071d906112e9565b80156107685780601f1061073f57610100808354040283529160200191610768565b820191905f5260205f20905b81548152906001019060200180831161074b57829003601f168201915b50505050509080600301805461077d906112e9565b80601f01602080910402602001604051908101604052809291908181526020018280546107a9906112e9565b80156107f45780601f106107cb576101008083540402835291602001916107f4565b820191905f5260205f20905b8154815290600101906020018083116107d757829003601f168201915b505050505090806004018054610809906112e9565b80601f0160208091040260200160405190810160405280929190818152602001828054610835906112e9565b80156108805780601f1061085757610100808354040283529160200191610880565b820191905f5260205f20905b81548152906001019060200180831161086357829003601f168201915b505050505090806005015f9054906101000a900473ffffffffffffffffffffffffffffffffffffffff16905086565b5f8054906101000a900473ffffffffffffffffffffffffffffffffffffffff1673ffffffffffffffffffffffffffffffffffffffff163373ffffffffffffffffffffffffffffffffffffffff161461093c576040517f08c379a000000000000000000000000000000000000000000000000000000000815260040161093390611389565b60405180910390fd5b60035f81548092919061094e90611275565b91905055506040518060c0016040528060035481526020018581526020018481526020018381526020018281526020015f81525060025f60035481526020019081526020015f205f820151815f015560208201518160010190816109b29190611544565b5060408201518160020190816109c89190611544565b5060608201518160030190816109de9190611544565b5060808201518160040190816109f49190611544565b5060a0820151816005015590505050505050565b5f8054906101000a900473ffffffffffffffffffffffffffffffffffffffff1681565b60055481565b6001602052805f5260405f205f915054906101000a900460ff1681565b60055f815480929190610a6090611275565b91905055506040518060c001604052808681526020018581526020018481526020018381526020018281526020013373ffffffffffffffffffffffffffffffffffffffff1681525060045f60055481526020019081526020015f205f820151815f019081610ace9190611544565b506020820151816001019081610ae49190611544565b506040820151816002019081610afa9190611544565b506060820151816003019081610b109190611544565b506080820151816004019081610b269190611544565b5060a0820151816005015f6101000a81548173ffffffffffffffffffffffffffffffffffffffff021916908373ffffffffffffffffffffffffffffffffffffffff1602179055509050505050505050565b5f604051905090565b5f80fd5b5f80fd5b5f819050919050565b610b9a81610b88565b8114610ba4575f80fd5b50565b5f81359050610bb581610b91565b92915050565b5f60208284031215610bd057610bcf610b80565b5b5f610bdd84828501610ba7565b91505092915050565b610bef81610b88565b82525050565b5f602082019050610c085f830184610be6565b92915050565b5f81519050919050565b5f82825260208201905092915050565b5f5b83811015610c45578082015181840152602081019050610c2a565b5f8484015250505050565b5f601f19601f8301169050919050565b5f610c6a82610c0e565b610c748185610c18565b9350610c84818560208601610c28565b610c8d81610c50565b840191505092915050565b5f60c082019050610cab5f830189610be6565b8181036020830152610cbd8188610c60565b90508181036040830152610cd18187610c60565b90508181036060830152610ce58186610c60565b90508181036080830152610cf98185610c60565b9050610d0860a0830184610be6565b979650505050505050565b5f73ffffffffffffffffffffffffffffffffffffffff82169050919050565b5f610d3c82610d13565b9050919050565b610d4c81610d32565b82525050565b5f60c0820190508181035f830152610d6a8189610c60565b90508181036020830152610d7e8188610c60565b90508181036040830152610d928187610c60565b90508181036060830152610da68186610c60565b90508181036080830152610dba8185610c60565b9050610dc960a0830184610d43565b979650505050505050565b5f80fd5b5f80fd5b7f4e487b71000000000000000000000000000000000000000000000000000000005f52604160045260245ffd5b610e1282610c50565b810181811067ffffffffffffffff82111715610e3157610e30610ddc565b5b80604052505050565b5f610e43610b77565b9050610e4f8282610e09565b919050565b5f67ffffffffffffffff821115610e6e57610e6d610ddc565b5b610e7782610c50565b9050602081019050919050565b828183375f83830152505050565b5f610ea4610e9f84610e54565b610e3a565b905082815260208101848484011115610ec057610ebf610dd8565b5b610ecb848285610e84565b509392505050565b5f82601f830112610ee757610ee6610dd4565b5b8135610ef7848260208601610e92565b91505092915050565b5f805f8060808587031215610f1857610f17610b80565b5b5f85013567ffffffffffffffff811115610f3557610f34610b84565b5b610f4187828801610ed3565b945050602085013567ffffffffffffffff811115610f6257610f61610b84565b5b610f6e87828801610ed3565b935050604085013567ffffffffffffffff811115610f8f57610f8e610b84565b5b610f9b87828801610ed3565b925050606085013567ffffffffffffffff811115610fbc57610fbb610b84565b5b610fc887828801610ed3565b91505092959194509250565b5f602082019050610fe75f830184610d43565b92915050565b610ff681610d32565b8114611000575f80fd5b50565b5f8135905061101181610fed565b92915050565b5f6020828403121561102c5761102b610b80565b5b5f61103984828501611003565b91505092915050565b5f8115159050919050565b61105681611042565b82525050565b5f60208201905061106f5f83018461104d565b92915050565b5f805f805f60a0868803121561108e5761108d610b80565b5b5f86013567ffffffffffffffff8111156110ab576110aa610b84565b5b6110b788828901610ed3565b955050602086013567ffffffffffffffff8111156110d8576110d7610b84565b5b6110e488828901610ed3565b945050604086013567ffffffffffffffff81111561110557611104610b84565b5b61111188828901610ed3565b935050606086013567ffffffffffffffff81111561113257611131610b84565b5b61113e88828901610ed3565b925050608086013567ffffffffffffffff81111561115f5761115e610b84565b5b61116b88828901610ed3565b9150509295509295909350565b7f596f75206861766520616c726561647920766f746564000000000000000000005f82015250565b5f6111ac601683610c18565b91506111b782611178565b602082019050919050565b5f6020820190508181035f8301526111d9816111a0565b9050919050565b7f496e76616c69642063616e6469646174650000000000000000000000000000005f82015250565b5f611214601183610c18565b915061121f826111e0565b602082019050919050565b5f6020820190508181035f83015261124181611208565b9050919050565b7f4e487b71000000000000000000000000000000000000000000000000000000005f52601160045260245ffd5b5f61127f82610b88565b91507fffffffffffffffffffffffffffffffffffffffffffffffffffffffffffffffff82036112b1576112b0611248565b5b600182019050919050565b7f4e487b71000000000000000000000000000000000000000000000000000000005f52602260045260245ffd5b5f600282049050600182168061130057607f821691505b602082108103611313576113126112bc565b5b50919050565b7f4f6e6c7920746865206d616e616765722063616e20706572666f726d207468695f8201527f73206f7065726174696f6e000000000000000000000000000000000000000000602082015250565b5f611373602b83610c18565b915061137e82611319565b604082019050919050565b5f6020820190508181035f8301526113a081611367565b9050919050565b5f819050815f5260205f209050919050565b5f6020601f8301049050919050565b5f82821b905092915050565b5f600883026114037fffffffffffffffffffffffffffffffffffffffffffffffffffffffffffffffff826113c8565b61140d86836113c8565b95508019841693508086168417925050509392505050565b5f819050919050565b5f61144861144361143e84610b88565b611425565b610b88565b9050919050565b5f819050919050565b6114618361142e565b61147561146d8261144f565b8484546113d4565b825550505050565b5f90565b61148961147d565b611494818484611458565b505050565b5b818110156114b7576114ac5f82611481565b60018101905061149a565b5050565b601f8211156114fc576114cd816113a7565b6114d6846113b9565b810160208510156114e5578190505b6114f96114f1856113b9565b830182611499565b50505b505050565b5f82821c905092915050565b5f61151c5f1984600802611501565b1980831691505092915050565b5f611534838361150d565b9150826002028217905092915050565b61154d82610c0e565b67ffffffffffffffff81111561156657611565610ddc565b5b61157082546112e9565b61157b8282856114bb565b5f60209050601f8311600181146115ac575f841561159a578287015190505b6115a48582611529565b86555061160b565b601f1984166115ba866113a7565b5f5b828110156115e1578489015182556001820191506020850194506020810190506115bc565b868310156115fe57848901516115fa601f89168261150d565b8355505b6001600288020188555050505b50505050505056fea26469706673582212202534c96e68aacbe5479cf14233c7c3ae79fbad2d0c402373cc5f3cf8f3800ad064736f6c63430008150033",
  "immutableReferences": {},
  "source": "// SPDX-License-Identifier: MIT\npragma solidity ^0.8.0;\n\ncontract Election {\n\n    address public manager;\n    // struct to define a candidate\n    struct Candidate {\n        uint id;\n        string CfirstName;\n        string ClastName;\n        string CidNumber;\n        string party;\n        uint voteCount;\n\n    }\n\n    // Mapping of voter address to Voter details\n    mapping(address => bool) public voters;\n    \n    // Mapping of candidateId to Candidate\n    mapping(uint => Candidate) public candidates;\n\n    uint public candidatesCount;\n\n    event VotedEvent(uint indexed candidateId);\n\n    constructor () {\n        manager = msg.sender;\n    }\n\n    // Function to add a candidate by admin\n    function addCandidate(string memory _CfirstName, string memory _ClastName, string memory _CidNumber, string memory _party) public restricted {\n        candidatesCount++;\n        candidates[candidatesCount] = Candidate(candidatesCount, _CfirstName, _ClastName, _CidNumber, _party, 0);\n    }\n\n    modifier restricted() {\n        require(msg.sender == manager, \"Only the manager can perform this operation\");\n        _;\n    }\n\n    function vote(uint _candidateId) public {\n        require(!voters[msg.sender], \"You have already voted\");\n        require(_candidateId > 0 && _candidateId <= candidatesCount, \"Invalid candidate\");\n\n        voters[msg.sender] = true;\n        candidates[_candidateId].voteCount++;\n        emit VotedEvent(_candidateId);\n    }\n\n    // User registration\n    struct User {\n        string firstName;\n        string lastName;\n        string idNumber;\n        string email;\n        string password;\n        address add;\n    }\n\n    mapping(uint => User) public users;\n    uint public usersCount;\n\n    function addUser(string memory _firstName, string memory _lastName, string memory _idNumber, string memory _email, string memory _password) public {\n        usersCount++;\n        users[usersCount] = User(_firstName, _lastName, _idNumber, _email, _password, msg.sender);\n    }\n}\n",
  "sourcePath": "/Users/mac/Documents/BU Documents\\/School/Blockchain/contracts/e-voting.sol",
  "compiler": {
    "name": "solc",
    "version": "0.8.21+commit.d9974bed.Emscripten.clang"
  },
  "schemaVersion": "3.4.16",
  "updatedAt": "2024-01-09T19:37:51.255Z",
  "devdoc": {
    "kind": "dev",
    "methods": {},
    "version": 1
  },
  "userdoc": {
    "kind": "user",
    "methods": {},
    "version": 1
  }
}