{
  "contractName": "EVoting",
  "abi": [
    {
      "inputs": [
        {
          "internalType": "address[]",
          "name": "initialAdmins",
          "type": "address[]"
        }
      ],
      "stateMutability": "nonpayable",
      "type": "constructor"
    },
    {
      "inputs": [],
      "name": "adminCount",
      "outputs": [
        {
          "internalType": "uint256",
          "name": "",
          "type": "uint256"
        }
      ],
      "stateMutability": "view",
      "type": "function"
    },
    {
      "inputs": [
        {
          "internalType": "uint256",
          "name": "",
          "type": "uint256"
        }
      ],
      "name": "admins",
      "outputs": [
        {
          "internalType": "address",
          "name": "",
          "type": "address"
        }
      ],
      "stateMutability": "view",
      "type": "function"
    },
    {
      "inputs": [
        {
          "internalType": "uint256",
          "name": "",
          "type": "uint256"
        }
      ],
      "name": "elections",
      "outputs": [
        {
          "internalType": "bool",
          "name": "isActive",
          "type": "bool"
        },
        {
          "internalType": "uint256",
          "name": "startTime",
          "type": "uint256"
        },
        {
          "internalType": "uint256",
          "name": "endTime",
          "type": "uint256"
        }
      ],
      "stateMutability": "view",
      "type": "function"
    },
    {
      "inputs": [
        {
          "internalType": "address",
          "name": "",
          "type": "address"
        },
        {
          "internalType": "uint256",
          "name": "",
          "type": "uint256"
        }
      ],
      "name": "hasVoted",
      "outputs": [
        {
          "internalType": "bool",
          "name": "",
          "type": "bool"
        }
      ],
      "stateMutability": "view",
      "type": "function"
    },
    {
      "inputs": [
        {
          "internalType": "address",
          "name": "",
          "type": "address"
        }
      ],
      "name": "isAnAdmin",
      "outputs": [
        {
          "internalType": "bool",
          "name": "",
          "type": "bool"
        }
      ],
      "stateMutability": "view",
      "type": "function"
    },
    {
      "inputs": [],
      "name": "nextElectionId",
      "outputs": [
        {
          "internalType": "uint256",
          "name": "",
          "type": "uint256"
        }
      ],
      "stateMutability": "view",
      "type": "function"
    },
    {
      "inputs": [
        {
          "internalType": "uint256",
          "name": "startTime",
          "type": "uint256"
        },
        {
          "internalType": "uint256",
          "name": "endTime",
          "type": "uint256"
        }
      ],
      "name": "createElection",
      "outputs": [],
      "stateMutability": "nonpayable",
      "type": "function"
    },
    {
      "inputs": [
        {
          "internalType": "uint256",
          "name": "electionId",
          "type": "uint256"
        },
        {
          "internalType": "string",
          "name": "firstName",
          "type": "string"
        },
        {
          "internalType": "string",
          "name": "lastName",
          "type": "string"
        },
        {
          "internalType": "string",
          "name": "candidateID",
          "type": "string"
        },
        {
          "internalType": "string",
          "name": "politicalParty",
          "type": "string"
        }
      ],
      "name": "addCandidateToElection",
      "outputs": [],
      "stateMutability": "nonpayable",
      "type": "function"
    },
    {
      "inputs": [
        {
          "internalType": "uint256",
          "name": "electionId",
          "type": "uint256"
        }
      ],
      "name": "startElection",
      "outputs": [],
      "stateMutability": "nonpayable",
      "type": "function"
    },
    {
      "inputs": [
        {
          "internalType": "uint256",
          "name": "electionId",
          "type": "uint256"
        }
      ],
      "name": "endElection",
      "outputs": [],
      "stateMutability": "nonpayable",
      "type": "function"
    },
    {
      "inputs": [
        {
          "internalType": "uint256",
          "name": "electionId",
          "type": "uint256"
        },
        {
          "internalType": "uint256",
          "name": "candidateId",
          "type": "uint256"
        },
        {
          "internalType": "string",
          "name": "lastName",
          "type": "string"
        },
        {
          "internalType": "uint256",
          "name": "secretID",
          "type": "uint256"
        }
      ],
      "name": "vote",
      "outputs": [],
      "stateMutability": "nonpayable",
      "type": "function"
    },
    {
      "inputs": [
        {
          "internalType": "uint256",
          "name": "electionId",
          "type": "uint256"
        }
      ],
      "name": "getElectionResults",
      "outputs": [
        {
          "internalType": "string[]",
          "name": "candidateNames",
          "type": "string[]"
        },
        {
          "internalType": "uint256[]",
          "name": "voteCounts",
          "type": "uint256[]"
        }
      ],
      "stateMutability": "view",
      "type": "function"
    }
  ],
  "bytecode": "0x608060405234801562000010575f80fd5b506040516200215b3803806200215b833981810160405281019062000036919062000333565b5f5b815181101562000145575f82828151811062000059576200005862000382565b5b6020026020010151908060018154018082558091505060019003905f5260205f20015f9091909190916101000a81548173ffffffffffffffffffffffffffffffffffffffff021916908373ffffffffffffffffffffffffffffffffffffffff1602179055506001805f848481518110620000d857620000d762000382565b5b602002602001015173ffffffffffffffffffffffffffffffffffffffff1673ffffffffffffffffffffffffffffffffffffffff1681526020019081526020015f205f6101000a81548160ff02191690831515021790555080806200013c90620003e5565b91505062000038565b5080516002819055505062000431565b5f604051905090565b5f80fd5b5f80fd5b5f80fd5b5f601f19601f8301169050919050565b7f4e487b71000000000000000000000000000000000000000000000000000000005f52604160045260245ffd5b620001b2826200016a565b810181811067ffffffffffffffff82111715620001d457620001d36200017a565b5b80604052505050565b5f620001e862000155565b9050620001f68282620001a7565b919050565b5f67ffffffffffffffff8211156200021857620002176200017a565b5b602082029050602081019050919050565b5f80fd5b5f73ffffffffffffffffffffffffffffffffffffffff82169050919050565b5f62000258826200022d565b9050919050565b6200026a816200024c565b811462000275575f80fd5b50565b5f8151905062000288816200025f565b92915050565b5f620002a46200029e84620001fb565b620001dd565b90508083825260208201905060208402830185811115620002ca57620002c962000229565b5b835b81811015620002f75780620002e2888262000278565b845260208401935050602081019050620002cc565b5050509392505050565b5f82601f83011262000318576200031762000166565b5b81516200032a8482602086016200028e565b91505092915050565b5f602082840312156200034b576200034a6200015e565b5b5f82015167ffffffffffffffff8111156200036b576200036a62000162565b5b620003798482850162000301565b91505092915050565b7f4e487b71000000000000000000000000000000000000000000000000000000005f52603260045260245ffd5b7f4e487b71000000000000000000000000000000000000000000000000000000005f52601160045260245ffd5b5f819050919050565b5f620003f182620003dc565b91507fffffffffffffffffffffffffffffffffffffffffffffffffffffffffffffffff8203620004265762000425620003af565b5b600182019050919050565b611d1c806200043f5f395ff3fe608060405234801561000f575f80fd5b50600436106100b2575f3560e01c80635313837b1161006f5780635313837b1461019c5780635e6fef01146101ba5780636d32dc4b146101ec5780639c98bcbb14610208578063e8ededa614610224578063f5ffe5cf14610255576100b2565b806314bfd6d0146100b657806322edefbe146100e65780632b7832b3146101025780633b8b0ffe14610120578063425458251461013c57806351bf6fb31461016c575b5f80fd5b6100d060048036038101906100cb9190610d6c565b610271565b6040516100dd9190610dd6565b60405180910390f35b61010060048036038101906100fb9190610def565b6102ab565b005b61010a61038e565b6040516101179190610e3c565b60405180910390f35b61013a60048036038101906101359190610f91565b610394565b005b610156600480360381019061015191906110a2565b61059a565b60405161016391906110fa565b60405180910390f35b61018660048036038101906101819190611113565b6105c4565b60405161019391906110fa565b60405180910390f35b6101a46105e1565b6040516101b19190610e3c565b60405180910390f35b6101d460048036038101906101cf9190610d6c565b6105e7565b6040516101e39392919061113e565b60405180910390f35b61020660048036038101906102019190610d6c565b610619565b005b610222600480360381019061021d9190610d6c565b610730565b005b61023e60048036038101906102399190610d6c565b610845565b60405161024c92919061135f565b60405180910390f35b61026f600480360381019061026a9190611394565b610ab8565b005b5f818154811061027f575f80fd5b905f5260205f20015f915054906101000a900473ffffffffffffffffffffffffffffffffffffffff1681565b60015f3373ffffffffffffffffffffffffffffffffffffffff1673ffffffffffffffffffffffffffffffffffffffff1681526020019081526020015f205f9054906101000a900460ff16610334576040517f08c379a000000000000000000000000000000000000000000000000000000000815260040161032b90611494565b60405180910390fd5b5f60035f60045f81548092919061034a906114df565b9190505581526020019081526020015f2090508281600101819055508181600201819055505f815f015f6101000a81548160ff021916908315150217905550505050565b60025481565b60015f3373ffffffffffffffffffffffffffffffffffffffff1673ffffffffffffffffffffffffffffffffffffffff1681526020019081526020015f205f9054906101000a900460ff1661041d576040517f08c379a000000000000000000000000000000000000000000000000000000000815260040161041490611494565b60405180910390fd5b60035f8681526020019081526020015f205f015f9054906101000a900460ff1661047c576040517f08c379a000000000000000000000000000000000000000000000000000000000815260040161047390611596565b60405180910390fd5b5f6040518060c0016040528060035f8981526020019081526020015f206004018054905081526020018681526020018581526020018481526020018381526020015f81525090508060035f8881526020019081526020015f206003015f835f015181526020019081526020015f205f820151815f0155602082015181600101908161050791906117ae565b50604082015181600201908161051d91906117ae565b50606082015181600301908161053391906117ae565b50608082015181600401908161054991906117ae565b5060a0820151816005015590505060035f8781526020019081526020015f20600401815f0151908060018154018082558091505060019003905f5260205f20015f9091909190915055505050505050565b6005602052815f5260405f20602052805f5260405f205f915091509054906101000a900460ff1681565b6001602052805f5260405f205f915054906101000a900460ff1681565b60045481565b6003602052805f5260405f205f91509050805f015f9054906101000a900460ff16908060010154908060020154905083565b60015f3373ffffffffffffffffffffffffffffffffffffffff1673ffffffffffffffffffffffffffffffffffffffff1681526020019081526020015f205f9054906101000a900460ff166106a2576040517f08c379a000000000000000000000000000000000000000000000000000000000815260040161069990611494565b60405180910390fd5b60035f8281526020019081526020015f205f015f9054906101000a900460ff1615610702576040517f08c379a00000000000000000000000000000000000000000000000000000000081526004016106f9906118c7565b60405180910390fd5b600160035f8381526020019081526020015f205f015f6101000a81548160ff02191690831515021790555050565b60015f3373ffffffffffffffffffffffffffffffffffffffff1673ffffffffffffffffffffffffffffffffffffffff1681526020019081526020015f205f9054906101000a900460ff166107b9576040517f08c379a00000000000000000000000000000000000000000000000000000000081526004016107b090611494565b60405180910390fd5b60035f8281526020019081526020015f205f015f9054906101000a900460ff16610818576040517f08c379a000000000000000000000000000000000000000000000000000000000815260040161080f9061192f565b60405180910390fd5b5f60035f8381526020019081526020015f205f015f6101000a81548160ff02191690831515021790555050565b60608060035f8481526020019081526020015f205f015f9054906101000a900460ff16156108a8576040517f08c379a000000000000000000000000000000000000000000000000000000000815260040161089f90611997565b60405180910390fd5b5f60035f8581526020019081526020015f206004018054905067ffffffffffffffff8111156108da576108d9610e6d565b5b6040519080825280602002602001820160405280156109085781602001602082028036833780820191505090505b5090505f60035f8681526020019081526020015f206004018054905067ffffffffffffffff81111561093d5761093c610e6d565b5b60405190808252806020026020018201604052801561097057816020015b606081526020019060019003908161095b5790505b5090505f5b60035f8781526020019081526020015f2060040180549050811015610aaa575f60035f8881526020019081526020015f2060040182815481106109bb576109ba6119b5565b5b905f5260205f200154905060035f8881526020019081526020015f206003015f8281526020019081526020015f2060050154848381518110610a00576109ff6119b5565b5b60200260200101818152505060035f8881526020019081526020015f206003015f8281526020019081526020015f2060010160035f8981526020019081526020015f206003015f8381526020019081526020015f20600201604051602001610a69929190611ab6565b604051602081830303815290604052838381518110610a8b57610a8a6119b5565b5b6020026020010181905250508080610aa2906114df565b915050610975565b508082935093505050915091565b60035f8581526020019081526020015f205f015f9054906101000a900460ff16610b17576040517f08c379a0000000000000000000000000000000000000000000000000000000008152600401610b0e9061192f565b60405180910390fd5b604051602001610b2690611b2e565b6040516020818303038152906040528051906020012082604051602001610b4d9190611b72565b6040516020818303038152906040528051906020012014610ba3576040517f08c379a0000000000000000000000000000000000000000000000000000000008152600401610b9a90611bd2565b60405180910390fd5b64021c83e6208114610bea576040517f08c379a0000000000000000000000000000000000000000000000000000000008152600401610be190611c3a565b60405180910390fd5b60055f3373ffffffffffffffffffffffffffffffffffffffff1673ffffffffffffffffffffffffffffffffffffffff1681526020019081526020015f205f8581526020019081526020015f205f9054906101000a900460ff1615610c83576040517f08c379a0000000000000000000000000000000000000000000000000000000008152600401610c7a90611cc8565b60405180910390fd5b60035f8581526020019081526020015f206003015f8481526020019081526020015f206005015f815480929190610cb9906114df565b9190505550600160055f3373ffffffffffffffffffffffffffffffffffffffff1673ffffffffffffffffffffffffffffffffffffffff1681526020019081526020015f205f8681526020019081526020015f205f6101000a81548160ff02191690831515021790555050505050565b5f604051905090565b5f80fd5b5f80fd5b5f819050919050565b610d4b81610d39565b8114610d55575f80fd5b50565b5f81359050610d6681610d42565b92915050565b5f60208284031215610d8157610d80610d31565b5b5f610d8e84828501610d58565b91505092915050565b5f73ffffffffffffffffffffffffffffffffffffffff82169050919050565b5f610dc082610d97565b9050919050565b610dd081610db6565b82525050565b5f602082019050610de95f830184610dc7565b92915050565b5f8060408385031215610e0557610e04610d31565b5b5f610e1285828601610d58565b9250506020610e2385828601610d58565b9150509250929050565b610e3681610d39565b82525050565b5f602082019050610e4f5f830184610e2d565b92915050565b5f80fd5b5f80fd5b5f601f19601f8301169050919050565b7f4e487b71000000000000000000000000000000000000000000000000000000005f52604160045260245ffd5b610ea382610e5d565b810181811067ffffffffffffffff82111715610ec257610ec1610e6d565b5b80604052505050565b5f610ed4610d28565b9050610ee08282610e9a565b919050565b5f67ffffffffffffffff821115610eff57610efe610e6d565b5b610f0882610e5d565b9050602081019050919050565b828183375f83830152505050565b5f610f35610f3084610ee5565b610ecb565b905082815260208101848484011115610f5157610f50610e59565b5b610f5c848285610f15565b509392505050565b5f82601f830112610f7857610f77610e55565b5b8135610f88848260208601610f23565b91505092915050565b5f805f805f60a08688031215610faa57610fa9610d31565b5b5f610fb788828901610d58565b955050602086013567ffffffffffffffff811115610fd857610fd7610d35565b5b610fe488828901610f64565b945050604086013567ffffffffffffffff81111561100557611004610d35565b5b61101188828901610f64565b935050606086013567ffffffffffffffff81111561103257611031610d35565b5b61103e88828901610f64565b925050608086013567ffffffffffffffff81111561105f5761105e610d35565b5b61106b88828901610f64565b9150509295509295909350565b61108181610db6565b811461108b575f80fd5b50565b5f8135905061109c81611078565b92915050565b5f80604083850312156110b8576110b7610d31565b5b5f6110c58582860161108e565b92505060206110d685828601610d58565b9150509250929050565b5f8115159050919050565b6110f4816110e0565b82525050565b5f60208201905061110d5f8301846110eb565b92915050565b5f6020828403121561112857611127610d31565b5b5f6111358482850161108e565b91505092915050565b5f6060820190506111515f8301866110eb565b61115e6020830185610e2d565b61116b6040830184610e2d565b949350505050565b5f81519050919050565b5f82825260208201905092915050565b5f819050602082019050919050565b5f81519050919050565b5f82825260208201905092915050565b5f5b838110156111d35780820151818401526020810190506111b8565b5f8484015250505050565b5f6111e88261119c565b6111f281856111a6565b93506112028185602086016111b6565b61120b81610e5d565b840191505092915050565b5f61122183836111de565b905092915050565b5f602082019050919050565b5f61123f82611173565b611249818561117d565b93508360208202850161125b8561118d565b805f5b8581101561129657848403895281516112778582611216565b945061128283611229565b925060208a0199505060018101905061125e565b50829750879550505050505092915050565b5f81519050919050565b5f82825260208201905092915050565b5f819050602082019050919050565b6112da81610d39565b82525050565b5f6112eb83836112d1565b60208301905092915050565b5f602082019050919050565b5f61130d826112a8565b61131781856112b2565b9350611322836112c2565b805f5b8381101561135257815161133988826112e0565b9750611344836112f7565b925050600181019050611325565b5085935050505092915050565b5f6040820190508181035f8301526113778185611235565b9050818103602083015261138b8184611303565b90509392505050565b5f805f80608085870312156113ac576113ab610d31565b5b5f6113b987828801610d58565b94505060206113ca87828801610d58565b935050604085013567ffffffffffffffff8111156113eb576113ea610d35565b5b6113f787828801610f64565b925050606061140887828801610d58565b91505092959194509250565b5f82825260208201905092915050565b7f4f6e6c792061646d696e732063616e20706572666f726d2074686973206163745f8201527f696f6e2e00000000000000000000000000000000000000000000000000000000602082015250565b5f61147e602483611414565b915061148982611424565b604082019050919050565b5f6020820190508181035f8301526114ab81611472565b9050919050565b7f4e487b71000000000000000000000000000000000000000000000000000000005f52601160045260245ffd5b5f6114e982610d39565b91507fffffffffffffffffffffffffffffffffffffffffffffffffffffffffffffffff820361151b5761151a6114b2565b5b600182019050919050565b7f456c656374696f6e206973206e6f7420616374697665206f7220646f6573206e5f8201527f6f742065786973742e0000000000000000000000000000000000000000000000602082015250565b5f611580602983611414565b915061158b82611526565b604082019050919050565b5f6020820190508181035f8301526115ad81611574565b9050919050565b7f4e487b71000000000000000000000000000000000000000000000000000000005f52602260045260245ffd5b5f60028204905060018216806115f857607f821691505b60208210810361160b5761160a6115b4565b5b50919050565b5f819050815f5260205f209050919050565b5f6020601f8301049050919050565b5f82821b905092915050565b5f6008830261166d7fffffffffffffffffffffffffffffffffffffffffffffffffffffffffffffffff82611632565b6116778683611632565b95508019841693508086168417925050509392505050565b5f819050919050565b5f6116b26116ad6116a884610d39565b61168f565b610d39565b9050919050565b5f819050919050565b6116cb83611698565b6116df6116d7826116b9565b84845461163e565b825550505050565b5f90565b6116f36116e7565b6116fe8184846116c2565b505050565b5b81811015611721576117165f826116eb565b600181019050611704565b5050565b601f8211156117665761173781611611565b61174084611623565b8101602085101561174f578190505b61176361175b85611623565b830182611703565b50505b505050565b5f82821c905092915050565b5f6117865f198460080261176b565b1980831691505092915050565b5f61179e8383611777565b9150826002028217905092915050565b6117b78261119c565b67ffffffffffffffff8111156117d0576117cf610e6d565b5b6117da82546115e1565b6117e5828285611725565b5f60209050601f831160018114611816575f8415611804578287015190505b61180e8582611793565b865550611875565b601f19841661182486611611565b5f5b8281101561184b57848901518255600182019150602085019450602081019050611826565b868310156118685784890151611864601f891682611777565b8355505b6001600288020188555050505b505050505050565b7f456c656374696f6e20697320616c7265616479206163746976652e00000000005f82015250565b5f6118b1601b83611414565b91506118bc8261187d565b602082019050919050565b5f6020820190508181035f8301526118de816118a5565b9050919050565b7f456c656374696f6e206973206e6f74206163746976652e0000000000000000005f82015250565b5f611919601783611414565b9150611924826118e5565b602082019050919050565b5f6020820190508181035f8301526119468161190d565b9050919050565b7f456c656374696f6e206973207374696c6c206163746976652e000000000000005f82015250565b5f611981601983611414565b915061198c8261194d565b602082019050919050565b5f6020820190508181035f8301526119ae81611975565b9050919050565b7f4e487b71000000000000000000000000000000000000000000000000000000005f52603260045260245ffd5b5f81905092915050565b5f81546119f8816115e1565b611a0281866119e2565b9450600182165f8114611a1c5760018114611a3157611a63565b60ff1983168652811515820286019350611a63565b611a3a85611611565b5f5b83811015611a5b57815481890152600182019150602081019050611a3c565b838801955050505b50505092915050565b7f20000000000000000000000000000000000000000000000000000000000000005f82015250565b5f611aa06001836119e2565b9150611aab82611a6c565b600182019050919050565b5f611ac182856119ec565b9150611acc82611a94565b9150611ad882846119ec565b91508190509392505050565b7f416b696e6c7561000000000000000000000000000000000000000000000000005f82015250565b5f611b186007836119e2565b9150611b2382611ae4565b600782019050919050565b5f611b3882611b0c565b9150819050919050565b5f611b4c8261119c565b611b5681856119e2565b9350611b668185602086016111b6565b80840191505092915050565b5f611b7d8284611b42565b915081905092915050565b7f496e76616c6964206c617374206e616d652e00000000000000000000000000005f82015250565b5f611bbc601283611414565b9150611bc782611b88565b602082019050919050565b5f6020820190508181035f830152611be981611bb0565b9050919050565b7f496e76616c6964207365637265742049442e00000000000000000000000000005f82015250565b5f611c24601283611414565b9150611c2f82611bf0565b602082019050919050565b5f6020820190508181035f830152611c5181611c18565b9050919050565b7f557365722068617320616c726561647920766f74656420696e207468697320655f8201527f6c656374696f6e2e000000000000000000000000000000000000000000000000602082015250565b5f611cb2602883611414565b9150611cbd82611c58565b604082019050919050565b5f6020820190508181035f830152611cdf81611ca6565b905091905056fea2646970667358221220a4111cd279a85dcfeaf4454b108705cfe7756dbf0987bca0749bbbbb7d7978ca64736f6c63430008150033",
  "immutableReferences": {},
  "source": "// SPDX-License-Identifier: MIT\n\npragma solidity ^0.8.21;\n\ncontract EVoting {\n    struct Candidate {\n        uint id;\n        string firstName;\n        string lastName;\n        string candidateID;\n        string politicalParty;\n        uint voteCount;\n    }\n\n    struct Election {\n        bool isActive;\n        uint startTime;\n        uint endTime;\n        mapping(uint => Candidate) candidates;\n        uint[] candidateIds;\n    }\n\n    address[] public admins; // Array to store admin addresses\n    mapping(address => bool) public isAnAdmin; // Mapping to check if an address is an admin\n    uint public adminCount; // Count of total admins\n\n    mapping(uint => Election) public elections;\n    uint public nextElectionId;\n\n    // Mapping to track if a user has voted in a specific election\n    mapping(address => mapping(uint => bool)) public hasVoted;\n\n    // Constructor to initialize admin addresses\n    constructor(address[] memory initialAdmins) {\n        for (uint i = 0; i < initialAdmins.length; i++) {\n            admins.push(initialAdmins[i]);\n            isAnAdmin[initialAdmins[i]] = true;\n        }\n        adminCount = initialAdmins.length;\n    }\n\n    // Modifier to restrict function access to only admins\n    modifier onlyAdmins() {\n        require(isAnAdmin[msg.sender], \"Only admins can perform this action.\");\n        _;\n    }\n\n    // Admin function to create an election\n    function createElection(uint startTime, uint endTime) public onlyAdmins {\n        Election storage election = elections[nextElectionId++];\n        election.startTime = startTime;\n        election.endTime = endTime;\n        election.isActive = false;\n    }\n\n    // Admin function to add a candidate to an election\n    function addCandidateToElection(uint electionId, string memory firstName, string memory lastName, string memory candidateID, string memory politicalParty) public onlyAdmins {\n        require(elections[electionId].isActive, \"Election is not active or does not exist.\");\n        Candidate memory newCandidate = Candidate({\n            id: elections[electionId].candidateIds.length,\n            firstName: firstName,\n            lastName: lastName,\n            candidateID: candidateID,\n            politicalParty: politicalParty,\n            voteCount: 0\n        });\n        elections[electionId].candidates[newCandidate.id] = newCandidate;\n        elections[electionId].candidateIds.push(newCandidate.id);\n    }\n\n    // Admin function to start an election\n    function startElection(uint electionId) public onlyAdmins {\n        require(!elections[electionId].isActive, \"Election is already active.\");\n        elections[electionId].isActive = true;\n    }\n\n    // Admin function to end an election\n    function endElection(uint electionId) public onlyAdmins {\n        require(elections[electionId].isActive, \"Election is not active.\");\n        elections[electionId].isActive = false;\n    }\n\n    // Voting function using last name and secret ID for verification\n    function vote(uint electionId, uint candidateId, string memory lastName, uint secretID) public {\n        require(elections[electionId].isActive, \"Election is not active.\");\n        require(keccak256(abi.encodePacked(lastName)) == keccak256(abi.encodePacked(\"Akinlua\")), \"Invalid last name.\");\n        require(secretID == 9068340768, \"Invalid secret ID.\");\n        require(!hasVoted[msg.sender][electionId], \"User has already voted in this election.\");\n\n        elections[electionId].candidates[candidateId].voteCount++;\n        hasVoted[msg.sender][electionId] = true; // Record that the user has voted\n    }\n\n    // Function to get election results\n    function getElectionResults(uint electionId) public view returns (string[] memory candidateNames, uint[] memory voteCounts) {\n        require(!elections[electionId].isActive, \"Election is still active.\");\n        uint[] memory counts = new uint[](elections[electionId].candidateIds.length);\n        string[] memory names = new string[](elections[electionId].candidateIds.length);\n\n        for (uint i = 0; i < elections[electionId].candidateIds.length; i++) {\n            uint candidateId = elections[electionId].candidateIds[i];\n            counts[i] = elections[electionId].candidates[candidateId].voteCount;\n            names[i] = string(abi.encodePacked(elections[electionId].candidates[candidateId].firstName, \" \", elections[electionId].candidates[candidateId].lastName));\n        }\n        return (names, counts);\n    }\n}",
  "sourcePath": "/Users/mac/Documents/BU Documents\\/School/Blockchain/contracts/evoting_on_blockchain_test.sol",
  "compiler": {
    "name": "solc",
    "version": "0.8.21+commit.d9974bed.Emscripten.clang"
  },
  "schemaVersion": "3.4.16",
  "updatedAt": "2024-01-11T14:25:11.966Z",
  "devdoc": {
    "kind": "dev",
    "methods": {},
    "version": 1
  },
  "userdoc": {
    "kind": "user",
    "methods": {},
    "version": 1
  }
}